:020000040800F2
:1000000000280020F9180008851700088B17000841
:1000100091170008971700089D17000800000000BE
:10002000000000000000000000000000A31700080E
:10003000AF17000800000000BB170008C717000832
:100040004119000841190008411900084119000828
:100050004119000841190008411900084119000818
:100060004119000841190008411900084119000808
:1000700041190008411900084119000841190008F8
:1000800041190008411900084119000841190008E8
:1000900041190008411900084119000841190008D8
:1000A00041190008411900084119000841190008C8
:1000B000D517000841190008000000004119000888
:1000C000411900080000000000000000411900086C
:1000D000000000004119000841190008000000005C
:1000E00041190008411900084119000800000000EA
:1000F0000000000000000000000000000000000000
:0C01000000000000000000005FF808F1A3
:10010C0010B5054C237833B9044B13B10448AFF345
:10011C0000800123237010BD94000020000000001B
:10012C002431000808B5034B1BB103490348AFF356
:10013C00008008BD00000000980000202431000859
:10014C0080B500AFA14B1B68013B032B00F238813B
:10015C0001A252F823F000BF75010008EF0100085E
:10016C0047030008C902000801220821984801F041
:10017C00E4FE00222021964801F0DFFE002210212F
:10018C00934801F0DAFE00224021914801F0D5FE9F
:10019C0000224FF480718E4801F0CFFE01228021A5
:1001AC008B4801F0CAFE894B02221A60894B00224F
:1001BC001A60884B00225A60864B00229A60864B4C
:1001CC005B681946012001F045FB844B1B68844A8F
:1001DC001360844B1B68844A1360844B01221A60A1
:1001EC000BE17F4B1A68824B1B689A4222D100228A
:1001FC004021774801F0A1FE01224FF48071744830
:10020C0001F09BFE00228021714801F096FE012234
:10021C0008216F4801F091FE002220216C4801F06A
:10022C008CFE002210216A4801F087FE704B1B687F
:10023C006D4A13606A4B1B68002B29D100220821E0
:10024C00634801F07AFE00222021614801F075FE1E
:10025C00012210215E4801F070FE012240215C4811
:10026C0001F06BFE00224FF48071594801F065FEDD
:10027C0000228021564801F060FE5A4B1B68584AF8
:10028C001360564B1B68584A1360504B04221A607B
:10029C00012000F059FC0346012B40F093804B4B9E
:1002AC000B221A604E4B1B68524A13604E4B1B6854
:1002BC00504A53604D4B00221A6083E0484B1B6838
:1002CC00002B25D100220821414801F036FE0122E5
:1002DC0020213F4801F031FE002210213C4801F062
:1002EC002CFE012240213A4801F027FE00224FF457
:1002FC008071374801F021FE00228021344801F042
:10030C001CFE3B4B1B68364A1360304B03221A60B1
:10031C00012000F019FC0346012B55D12B4B0B226D
:10032C001A602F4B1B68334A13602F4B1B68314AE2
:10033C0053602E4B00221A6046E0294B1B68002BA1
:10034C0029D101220821224801F0F7FD00222021A9
:10035C001F4801F0F2FD002210211D4801F0EDFDB7
:10036C00002240211A4801F0E8FD00224FF4807170
:10037C00174801F0E2FD01228021154801F0DDFD56
:10038C00164B1B68164A1360164B1B68164A1360F3
:10039C000E4B02221A60012000F0D6FB0346012B03
:1003AC002AD10A4B0B221A600D4B1B68114A1360A1
:1003BC000D4B1B680F4A53600C4B00221A601BE05C
:1003CC0000BF1AE000BF18E000BF16E0C00000201C
:1003DC0000080140F800002014000020000000205C
:1003EC00C800002004000020CC0000200C000020DD
:1003FC00080000200401002000BF0D4B5B68012B9E
:10040C0013D10C4B1B68002B0FD00B4B1B68013B03
:10041C00094A1360094B1B68013B084A1360084BDF
:10042C005B681946012001F015FA00BF80BD00BFC2
:10043C00680100200C000020C8000020CC00002027
:10044C001400002080B500AFA14B1B680B3B032BA5
:10045C0000F2938101A252F823F000BF7904000846
:10046C00BB04000879060008A705000800224021FB
:10047C00984801F062FD00224FF48071954801F01C
:10048C005CFD00228021934801F057FD904B0C221B
:10049C001A60914B1B68914A1360914B02221A60AF
:1004AC00904B9B681946022001F0D4F96CE10022B4
:1004BC002021884801F041FD00221021854801F0DF
:1004CC003CFD012000F040FB0346002B0FD0804B7D
:1004DC000D221A60844B1B68804A1360804B0322E8
:1004EC001A60804B9B681946022001F0B3F9022078
:1004FC0000F02AFB0346002B0BD0784B1B68013312
:10050C00764A1360774B9B681946022001F0A2F9DA
:10051C0014E0022000F034FB0346002B0ED0734B8A
:10052C00DB68012B0AD16D4B1B6801336B4A1360DE
:10053C006C4BDB681946032001F08CF9032000F0AA
:10054C0003FB0346002B18D0644B1A68624B1B68E4
:10055C00D21A654B1B681344634A13605F4B1B68CC
:10056C005D4A1360012208215A4801F0E6FC5D4BFC
:10057C001B691946022001F06DF95C4B9B68012B3D
:10058C0040F0FD800821534801F0EFFC554B9B686F
:10059C001946022001F05EF9F1E0002208214D48D5
:1005AC0001F0CBFC002210214A4801F0C6FC0120CE
:1005BC0000F0CAFA0346002B02D0454B01221A6008
:1005CC00022000F0C1FA0346002B0BD0434B1B68F2
:1005DC000133424A1360434B9B681946022001F0D9
:1005EC0039F914E0022000F0CBFA0346002B0ED0B0
:1005FC003E4BDB68012B0AD1384B1B680133374A61
:10060C001360384BDB681946032001F023F90320F3
:10061C0000F09AFA0346002B18D0304B1A68344B72
:10062C001B68D21A2C4B1B6813442B4A13602B4BA0
:10063C001B682F4A136001222021264801F07DFC03
:10064C00284B1B691946022001F004F9274B9B68C3
:10065C00012B40F0968020211E4801F086FC214B96
:10066C009B681946022001F0F5F88AE00022082167
:10067C00184801F062FC00222021164801F05DFCB4
:10068C00012000F061FA0346002B0FD0104B0E2214
:10069C001A60174B1B68114A1360114B04221A6025
:1006AC00104B9B681946022001F0D4F8022000F090
:1006BC004BFA0346002B1DD0084B1B680133074A2D
:1006CC001360084B9B681946022001F0C3F826E022
:1006DC00C00000200008014000000020C8000020DD
:1006EC00CC00002014000020040000206801002031
:1006FC0008000020022000F043FA0346002B0ED025
:10070C00224BDB68012B0AD1214B1B680133204A99
:10071C001360204BDB681946032001F09BF8032083
:10072C0000F012FA0346002B18D0194B1A681A4B1A
:10073C001B68D21A194B1B681344184A1360144BCC
:10074C001B68154A136001221021154801F0F5FBB6
:10075C00104B1B691946022001F07CF80B4B9B686F
:10076C00012B10D110210E4801F0FFFB094B9B68A7
:10077C001946022001F06EF805E000BF04E000BF4E
:10078C0002E000BF00E000BF00BF80BD6801002098
:10079C00C8000020140000200400002000000020ED
:1007AC000008014080B483B000AF7860074A7B68D2
:1007BC00012142F82310064A7B68002142F82310DD
:1007CC0000BF0C37BD4680BC704700BFF80000204E
:1007DC00EC00002080B483B000AF7860074A7B68DF
:1007EC00002142F82310064A7B68012142F82310AD
:1007FC0000BF0C37BD4680BC704700BFF80000201E
:10080C00EC00002080B483B000AF7860074A7B68AE
:10081C00002142F82310064A7B68002142F823107D
:10082C0000BF0C37BD4680BC704700BFF8000020ED
:10083C00EC00002080B582B000AF00237B6075E136
:10084C009F4A7B68134419789E4A7B6813440A4676
:10085C001A709D4A7B6813441978994A7B68134433
:10086C000A461A707B68022B00F0DF807B68022B33
:10087C0000F352817B68002B03D07B68012B6DD079
:10088C004AE14FF40051914801F040FB03461946F0
:10089C008D4A7B6813440A461A708A4A7B68134453
:1008AC001A7887497B680B441B789A4240F0368152
:1008BC00834A7B6813441A7883497B680B441B7802
:1008CC009A4240F02B81824A7B6813441A787E4905
:1008DC007B680B441B789A4221D07B4A7B6813447B
:1008EC0019787B4A7B6813440A461A70764A7B68EF
:1008FC0013441B78002B03D17868FFF753FF08E0F3
:10090C00714A7B6813441B78012B02D17868FFF77E
:10091C0079FF704A7B68C82142F82310FEE06D4ACB
:10092C007B6852F823305A1E6A497B6841F82320B1
:10093C00684A7B6852F82330002B00F3EF80624A40
:10094C007B6813441B78002B02D17868FFF72AFFD1
:10095C00604A7B68C82142F82310DFE002215E4820
:10096C0001F0D4FA03461946574A7B6813440A46E9
:10097C001A70544A7B6813441A7851497B680B44AB
:10098C001B789A4240F0CC804D4A7B6813441A780D
:10099C004D497B680B441B789A4240F0C1804C4A0D
:1009AC007B6813441A7848497B680B441B789A423D
:1009BC0021D0454A7B6813441978454A7B68134417
:1009CC000A461A70404A7B6813441B78002B03D1EB
:1009DC007868FFF7E7FE08E03B4A7B6813441B7816
:1009EC00012B02D17868FFF70DFF3A4A7B68C821CA
:1009FC0042F8231094E0374A7B6852F823305A1E91
:100A0C0034497B6841F82320324A7B6852F8233002
:100A1C00002B00F385802C4A7B6813441B78002B39
:100A2C007ED17868FFF7D6FE7AE004212A4801F0DF
:100A3C006DFA03461946244A7B6813440A461A7019
:100A4C00204A7B6813441A781D497B680B441B7839
:100A5C009A4267D11A4A7B6813441A781A497B6800
:100A6C000B441B789A425DD1194A7B6813441A785F
:100A7C0015497B680B441B789A422FD0124A7B682D
:100A8C0013441978124A7B6813440A461A700E4AAA
:100A9C007B6813441B78002B03D17868FFF782FE28
:100AAC0008E0094A7B6813441B78012B02D1786853
:100ABC00FFF7A8FE074A7B68C82142F8231031E0F3
:100ACC00B8000020B4000020B0000020001001404D
:100ADC00BC000020E000002000080140184A7B68A0
:100AEC0052F823305A1E16497B6841F82320144AC9
:100AFC007B6852F82330002B14DC124A7B681344B9
:100B0C001B78002B02D17868FFF74CFE0C4A7B68EF
:100B1C00C82142F8231005E000BF04E000BF02E04A
:100B2C0000BF00E000BF7B6801337B607B68022B59
:100B3C007FF786AE00BF00BF0837BD4680BD00BF43
:100B4C00E0000020B000002080B483B000AF7860DB
:100B5C007B68013B094A52F82330012B07D17B6893
:100B6C00013B064A002142F82310012300E0002338
:100B7C0018460C37BD4680BC704700BFF8000020FB
:100B8C0080B483B000AF78607B68013B094A52F8AF
:100B9C002330012B07D17B68013B064A002142F828
:100BAC002310012300E0002318460C37BD4680BCFF
:100BBC00704700BFEC00002080B582B000AF7860B9
:100BCC007B68092B00F2C88101A252F823F000BF08
:100BDC00050C00085B0C0008B10C0008070D0008A0
:100BEC005D0D0008B30D00085F0E0008090E00082B
:100BFC00B50E00080B0F000800224FF40071D54809
:100C0C0001F09BF900224FF48061D24801F095F974
:100C1C0000224FF40061CF4801F08FF900224FF40D
:100C2C008051CC4801F089F900224FF40051C94899
:100C3C0001F083F900224FF48041C64801F07DF9A0
:100C4C0001224FF40041C34801F077F9AFE10122D2
:100C5C004FF40071BF4801F070F900224FF480612D
:100C6C00BC4801F06AF900224FF40061B94801F068
:100C7C0064F901224FF48051B64801F05EF901226B
:100C8C004FF40051B34801F058F901224FF4804160
:100C9C00B04801F052F901224FF40041AD4801F087
:100CAC004CF984E100224FF40071AA4801F045F997
:100CBC0000224FF48061A74801F03FF901224FF464
:100CCC000061A44801F039F900224FF48051A14889
:100CDC0001F033F900224FF400519E4801F02DF938
:100CEC0001224FF480419B4801F027F900224FF478
:100CFC000041984801F021F959E100224FF40071AC
:100D0C00944801F01AF900224FF48061914801F0E7
:100D1C0014F900224FF400618E4801F00EF9002204
:100D2C004FF480518B4801F008F901224FF4005127
:100D3C00884801F002F901224FF48041854801F006
:100D4C00FCF800224FF40041824801F0F6F82EE145
:100D5C0001224FF400717F4801F0EFF800224FF4AC
:100D6C0080617C4801F0E9F800224FF40061794879
:100D7C0001F0E3F801224FF48051764801F0DDF8E0
:100D8C0001224FF40051734801F0D7F800224FF4C0
:100D9C008041704801F0D1F800224FF400416D48B9
:100DAC0001F0CBF803E100224FF40071694801F027
:100DBC00C4F801224FF48061664801F0BEF80022AD
:100DCC004FF40061634801F0B8F800224FF48051F1
:100DDC00604801F0B2F801224FF400515D4801F077
:100DEC00ACF800224FF480415A4801F0A6F80022DA
:100DFC004FF40041574801F0A0F8D8E000224FF41E
:100E0C000071544801F099F800224FF48061514868
:100E1C0001F093F800224FF400614E4801F08DF878
:100E2C0001224FF480514B4801F087F801224FF416
:100E3C000051484801F081F801224FF480414548A7
:100E4C0001F07BF801224FF40041424801F075F8A3
:100E5C00ADE000224FF400713E4801F06EF8012223
:100E6C004FF480613B4801F068F800224FF40061B8
:100E7C00384801F062F800224FF48051354801F0F7
:100E8C005CF800224FF40051324801F056F8002271
:100E9C004FF480412F4801F050F800224FF40041EC
:100EAC002C4801F04AF882E000224FF400712948E6
:100EBC0001F043F800224FF48061264801F03DF820
:100ECC0000224FF40061234801F037F800224FF460
:100EDC008051204801F031F800224FF400511D4898
:100EEC0001F02BF800224FF480411A4801F025F84C
:100EFC0000224FF40041174801F01FF857E0002280
:100F0C004FF40071134801F018F800224FF480617F
:100F1C00104801F012F800224FF400610D4801F066
:100F2C000CF800224FF480510A4801F006F8012217
:100F3C004FF40051074801F000F800224FF48041B3
:100F4C00044800F0FAFF00224FF40041014800F081
:100F5C00F4FF2CE00008014001224FF40071164808
:100F6C0000F0EBFF01224FF48061134800F0E5FF25
:100F7C0001224FF40061104800F0DFFF01224FF412
:100F8C0080510D4800F0D9FF01224FF400510A485E
:100F9C0000F0D3FF01224FF48041074800F0CDFF51
:100FAC0000224FF40041044800F0C7FF00BF00BF0F
:100FBC000837BD4680BD00BF0008014080B582B037
:100FCC0000AF7860554B1B68032B00F2958001A293
:100FDC0052F823F0F10F0008311000087B100008C4
:100FEC00BB1000084E4B1B684E4A82FB031292103A
:100FFC00DB17D31A1846FFF7DFFD002201214A4800
:10100C0000F09BFF01220221474800F096FF0122CD
:10101C000421454800F091FF01220821424800F0CC
:10102C008CFF6AE03E4B1A683E4B83FB021399100F
:10103C00D317C91A0B469B000B445B00D11A084608
:10104C00FFF7BAFD00220221374800F076FF01229B
:10105C000121354800F071FF01220421324800F0D3
:10106C006CFF01220821304800F067FF45E02F4B50
:10107C001B682C4A82FB03129210DB17D31A1846FA
:10108C00FFF79AFD01220221274800F056FF0122AA
:10109C000121254800F051FF00220421224800F0D4
:1010AC004CFF01220821204800F047FF25E01F4B90
:1010BC001A681C4B83FB02139910D317C91A0B46E1
:1010CC009B000B445B00D11A0846FFF775FD01220B
:1010DC000221154800F031FF01220121124800F0D5
:1010EC002CFF01220421104800F027FF00220821C8
:1010FC000D4800F022FF00E000BF084B1B680133D5
:10110C00064A1360054B1B68032B02DD034B0022C0
:10111C001A6000BF0837BD4680BD00BFC400002068
:10112C00C800002067666666000C0140CC000020F9
:10113C0080B500AF0E4B1B681946002000F08AFBEF
:10114C000B4B5B681946012000F084FB084B9B6835
:10115C001946022000F07EFB054BDB681946032084
:10116C0000F078FB034B01221A6000BF80BD00BF6A
:10117C0014000020C000002080B500AF00F0DCFBA4
:10118C0000F038F800F072F800F0BCF8134801F0E9
:10119C0031FBFFF7CDFF00F063F9002301220021A2
:1011AC000F4800F0AFF90123022201210D4800F095
:1011BC00A9F90223022202210B4800F0A3F9032310
:1011CC0002220321094800F09DF904230A220A2176
:1011DC00074800F097F900F04BFAFCE70C010020EF
:1011EC00A1180008410800084D010008510400082E
:1011FC00C90F000880B590B000AF07F11803282282
:10120C000021184601F0BCFE3B1D00221A605A60FA
:10121C009A60DA601A610223BB610123BB6210235E
:10122C00FB6200237B6307F11803184600F0B6FE3F
:10123C000346002B01D000F0EBF80F237B6000235A
:10124C00BB600023FB6000233B6100237B613B1DE3
:10125C000021184601F022F90346002B01D000F0C2
:10126C00D7F800BF4037BD4680BD000080B586B0C2
:10127C0000AF07F1080300221A605A609A60DA6026
:10128C003B4600221A605A601D4B4FF080421A6098
:10129C001B4B41F63F725A60194B00229A60184B57
:1012AC000922DA60164B00221A61154B00229A6152
:1012BC00134801F04FFA0346002B01D000F0A8F8B8
:1012CC004FF48053BB6007F1080319460C4801F03A
:1012DC00CDFB0346002B01D000F09AF800233B60B5
:1012EC0000237B603B461946054801F0A5FD0346EB
:1012FC00002B01D000F08CF800BF1837BD4680BD24
:10130C000C01002080B588B000AF07F1100300225B
:10131C001A605A609A60DA60344B9B69334A43F026
:10132C0010039361314B9B6903F01003FB60FB6866
:10133C002E4B9B692D4A43F0040393612B4B9B6905
:10134C0003F00403BB60BB68284B9B69274A43F03E
:10135C0008039361254B9B6903F008037B607B6852
:10136C0000224FF6F871224800F0E7FD0022FF2121
:10137C00204800F0E2FD4FF400533B6100237B61F9
:10138C000123BB6107F1100319461B4800F044FC14
:10139C0006233B6100237B610123BB6107F1100332
:1013AC001946134800F038FC4FF6F8733B610123E3
:1013BC007B610023BB610223FB6107F1100319461B
:1013CC000B4800F029FCFF233B6101237B610023C8
:1013DC00BB610223FB6107F110031946054800F0BD
:1013EC001BFC00BF2037BD4680BD00BF0010024073
:1013FC0000080140000C01400010014080B582B093
:10140C0000AF786000F0FCF800BF0837BD4680BD27
:10141C0080B400AF72B600BFFEE780B586B000AFF7
:10142C00F860B9607A603B60142001F099FD0346C6
:10143C007B617B69002B0ED0FA687B691A607B6933
:10144C00BA685A607B697A689A607B693A68DA6034
:10145C007B693A6A1A617B6918461837BD4680BDAC
:10146C0080B500AF102001F07BFD03461A460A4BF5
:10147C001A60094B1B6800221A60074B1B6800227C
:10148C005A60054B1B680022DA60034A1268DB685D
:10149C00936000BF80BD00BFD000002080B582B03B
:1014AC0000AF174B1B689B687B60154B1B681B6858
:1014BC00002B21D0012B0FD1114B1B6800229A60FD
:1014CC000F4B1B680022DA600D4B1B681A68013A3F
:1014DC001A60786801F04CFD094B1B689A68084B40
:1014EC001B6812699A60786801F042FD044B1B6816
:1014FC001A68013A1A6000E000BF0837BD4680BD8B
:10150C00D000002080B58CB002AFF860B9607A6072
:10151C003B60002300933B687A68B968F868FFF772
:10152C007CFFB86100237B62344B1B689B683B6279
:10153C000023FB7700237B612CE0BB695A683B6A74
:10154C005B68D31A7B617B69002B03DBBB697A690F
:10155C005A601AE07B69002B17DABB693A6A1A6188
:10156C003B6A5A68BB695B68D21A3B6A5A607B6AF1
:10157C00002B03D07B6ABA691A6103E01F4B1B680E
:10158C00BA699A600123FB770EE03B6A7B623B6A87
:10159C001B693B623B6A002B06D0184B1B68DB684F
:1015AC001B693A6A9A42C8D1FB7F83F00103DBB214
:1015BC00002B19D0114B1B689B68002B0CD00F4BC8
:1015CC001B68DB68BA691A610C4B1B68DA680B4B39
:1015DC001B681269DA6007E0084B1B68BA69DA60AD
:1015EC00064A1268DB689360044B1B681A68013268
:1015FC001A6000BF2837BD4680BD00BFD000002058
:10160C0080B400AF194B1B681B68002B2ADD174BED
:10161C001B685A6801325A60144B1B689B685A68E5
:10162C00124B1B685B689A420CDB104B1B689B6867
:10163C0059680E4B1B685A680C4B1B689B688A1ABE
:10164C005A600FE0094B1B685968084B1B689B6874
:10165C005A68064B1B688A1A5A60044B1B689B68B5
:10166C0000225A6000BFBD4680BC7047D0000020ED
:10167C0080B582B000AF144B1B681B68002B1EDDBD
:10168C00114B1B689B687B6015E07B681B68984757
:10169C007B689B68002B09DD7B6818687B68996800
:1016AC007B689A687B68DB68FFF72CFF7B681B699B
:1016BC007B60FFF7F3FE7B685B68002BE5D000BF17
:1016CC000837BD4680BD00BFD000002080B485B077
:1016DC0000AF154B9B69144A43F001039361124B05
:1016EC009B6903F00103BB60BB680F4BDB690E4ABF
:1016FC0043F08053D3610C4BDB6903F080537B6068
:10170C007B680A4B5B68FB60FB6823F0E063FB6063
:10171C00FB6843F08063FB60044AFB68536000BFC6
:10172C001437BD4680BC70470010024000000140D9
:10173C0080B584B000AF78607B681B68B3F1804FD4
:10174C0013D10C4BDB690B4A43F00103D361094BFA
:10175C00DB6903F00103FB60FB68002200211C2005
:10176C0000F023FA1C2000F03CFA00BF1037BD46F5
:10177C0080BD00BF0010024080B400AFFEE780B413
:10178C0000AFFEE780B400AFFEE780B400AFFEE729
:10179C0080B400AFFEE780B400AF00BFBD4680BC94
:1017AC00704780B400AF00BFBD4680BC704780B4AA
:1017BC0000AF00BFBD4680BC704780B500AF00F0E5
:1017CC0001F900BF80BD000080B500AF024801F0F8
:1017DC005DF800BF80BD00BF0C01002080B586B055
:1017EC0000AF7860144A154BD31A7B617B693B615F
:1017FC00134B1B68002B02D1114B124A1A60104B71
:10180C001A687B6813443A699A4207D201F07EFB4E
:10181C0003460C221A604FF0FF3309E0084B1B689B
:10182C00FB60074B1A687B681344054A1360FB681E
:10183C0018461837BD4680BD002800200004000063
:10184C00D40000209001002080B400AF00BFBD4642
:10185C0080BC704780B483B000AF786039600A4AAE
:10186C007B68002142F823103B68084A82FB031274
:10187C009210DB17D21A06497B6841F8232000BF6F
:10188C000C37BD4680BC70476801002067666666F1
:10189C005401002080B483B000AF00237B6017E0BC
:1018AC00104A7B6852F82330002B05DC0E4A7B680B
:1018BC00012142F8231008E00A4A7B6852F82330D1
:1018CC005A1E08497B6841F823207B6801337B60F2
:1018DC007B68042BE4DD00BF00BF0C37BD4680BC29
:1018EC00704700BF5401002068010020FFF7ACFFD7
:1018FC000B480C490C4A002302E0D458C450043362
:10190C00C4188C42F9D3094A094C002301E0136036
:10191C000432A242FBD301F0FFFAFFF72DFC704713
:10192C000000002094000020683100089400002082
:10193C0090010020FEE7000080B500AF084B1B684B
:10194C00074A43F010031360032000F023F90F2023
:10195C0000F008F8FFF7BAFE0023184680BD00BF60
:10196C000020024080B582B000AF7860124B1A683C
:10197C00124B1B7819464FF47A73B3FBF1F3B2FB9D
:10198C00F3F3184600F03BF90346002B01D001237A
:10199C000EE07B680F2B0AD8002279684FF0FF30DD
:1019AC0000F003F9064A7B681360002300E0012372
:1019BC0018460837BD4680BD100000202C000020C2
:1019CC002800002080B400AF054B1B781A46054B4D
:1019DC001B681344034A136000BFBD4680BC7047AC
:1019EC002C0000207C01002080B400AF024B1B684F
:1019FC001846BD4680BC70477C01002080B485B081
:101A0C0000AF78607B6803F00703FB600C4BDB686E
:101A1C00BB60BA684FF6FF031340BB60FB681A0249
:101A2C00BB68134343F0BF6343F40033BB60044A09
:101A3C00BB68D36000BF1437BD4680BC704700BF85
:101A4C0000ED00E080B400AF044BDB681B0A03F030
:101A5C0007031846BD4680BC704700BF00ED00E090
:101A6C0080B483B000AF0346FB7197F90730002BAD
:101A7C000BDBFB7903F01F02064997F907305B0972
:101A8C00012000FA02F241F8232000BF0C37BD46BA
:101A9C0080BC704700E100E080B483B000AF034627
:101AAC003960FB7197F90730002B0ADB3B68DAB21F
:101ABC000C4997F907301201D2B20B4483F800237A
:101ACC000AE03B68DAB20849FB7903F00F03043BE8
:101ADC001201D2B20B441A7600BF0C37BD4680BC43
:101AEC00704700BF00E100E000ED00E080B489B079
:101AFC0000AFF860B9607A60FB6803F00703FB6124
:101B0C00FB69C3F10703042B28BF0423BB61FB69EA
:101B1C000433062B02D9FB69033B00E000237B61F5
:101B2C004FF0FF32BB6902FA03F3DA43BB681A4089
:101B3C007B699A404FF0FF317B6901FA03F3D9437B
:101B4C007B680B40134318462437BD4680BC704756
:101B5C0080B582B000AF78607B68013BB3F1807FC9
:101B6C0001D301230FE00A4A7B68013B53600F212C
:101B7C004FF0FF30FFF790FF054B00229A60044BAB
:101B8C0007221A60002318460837BD4680BD00BFE7
:101B9C0010E000E080B582B000AF78607868FFF7A5
:101BAC002DFF00BF0837BD4680BD80B586B000AFA5
:101BBC000346B9607A60FB7300237B61FFF742FF39
:101BCC0078617A68B9687869FFF790FF024697F9EF
:101BDC000F3011461846FFF75FFF00BF1837BD46A0
:101BEC0080BD80B582B000AF0346FB7197F907301A
:101BFC001846FFF735FF00BF0837BD4680BD80B5DE
:101C0C0082B000AF78607868FFF7A2FF03461846F1
:101C1C000837BD4680BD000080B48BB000AF786043
:101C2C00396000237B6200233B6248E101227B6A1E
:101C3C0002FA03F3FB613B681B68FA691340BB6152
:101C4C00BA69FB699A4240F037813B685B68A34AEA
:101C5C0093425ED0A14A934275D8A14A934258D080
:101C6C009F4A93426FD89F4A934252D09D4A9342C7
:101C7C0069D89D4A93424CD09B4A934263D89B4A65
:101C8C00934246D0994A93425DD8122B2AD8122BF4
:101C9C0059D801A252F823F01F1D0008F91C0008A6
:101CAC000B1D00084D1D0008531D0008531D000896
:101CBC00531D0008531D0008531D0008531D000838
:101CCC00531D0008531D0008531D0008531D000828
:101CDC00531D0008531D0008531D0008011D00086A
:101CEC00151D0008824A934213D02CE03B68DB6838
:101CFC003B6229E03B68DB6804333B6224E03B68D1
:101D0C00DB6808333B621FE03B68DB680C333B62EB
:101D1C001AE03B689B68002B02D104233B6213E062
:101D2C003B689B68012B05D108233B627B68FA69F1
:101D3C001A6109E008233B627B68FA695A6103E087
:101D4C0000233B6200E000BFBB69FF2B01D87B681E
:101D5C0001E07B6804337B61BB69FF2B02D87B6A93
:101D6C009B0002E07B6A083B9B003B617B691A6825
:101D7C000F213B6901FA03F3DB431A40396A3B69D3
:101D8C0001FA03F31A437B691A603B685B6803F042
:101D9C008053002B00F09080564B9B69554A43F0C2
:101DAC0001039361534B9B6903F00103BB60BB6858
:101DBC00514A7B6A9B08023352F82330FB607B6AE2
:101DCC0003F003039B000F2202FA03F3DB43FA68D0
:101DDC001340FB607B68494A93420DD07B68484AAC
:101DEC00934207D07B68474A934201D1022304E017
:101DFC00032302E0012300E000237A6A02F00302CD
:101E0C0092009340FA681343FB603B497B6A9B0842
:101E1C000233FA6841F823203B685B6803F48013B3
:101E2C00002B06D0384B9A683749BB6913438B603B
:101E3C0006E0354B9A68BB69DB43334913408B6032
:101E4C003B685B6803F40013002B06D02E4BDA685A
:101E5C002D49BB691343CB6006E02B4BDA68BB6999
:101E6C00DB4329491340CB603B685B6803F40033C8
:101E7C00002B06D0244B5A682349BB6913434B6093
:101E8C0006E0214B5A68BB69DB431F4913404B608A
:101E9C003B685B6803F48033002B06D01A4B1A683E
:101EAC001949BB6913430B6006E0174B1A68BB69F1
:101EBC00DB43154913400B607B6A01337B623B6843
:101ECC001A687B6A22FA03F3002B7FF4AFAE00BFD3
:101EDC0000BF2C37BD4680BC704700BF00003210DD
:101EEC000000311000002210000021100000121020
:101EFC0000001110001002400000014000080140D9
:101F0C00000C0140001001400004014080B485B079
:101F1C0000AF78600B467B807B689A687B881340A7
:101F2C00002B02D00123FB7301E00023FB73FB7B2E
:101F3C0018461437BD4680BC704780B483B000AFE0
:101F4C0078600B467B8013467B707B78002B03D02C
:101F5C007A887B681A6103E07B881A047B681A61B3
:101F6C0000BF0C37BD4680BC704780B485B000AF55
:101F7C0078600B467B807B68DB68FB607A88FB684B
:101F8C0013401A04FB68D9437B880B401A437B68C7
:101F9C001A6100BF1437BD4680BC704780B586B04F
:101FAC0000AF78607B68002B01D101236CE27B6869
:101FBC001B6803F00103002B00F08780924B5B68D9
:101FCC0003F00C03042B0CD08F4B5B6803F00C0359
:101FDC00082B12D18C4B5B6803F48033B3F5803F34
:101FEC000BD1894B1B6803F40033002B6CD07B683E
:101FFC005B68002B68D1012346E27B685B68B3F514
:10200C00803F06D1804B1B687F4A43F480331360BA
:10201C002EE07B685B68002B0CD17B4B1B687A4AEB
:10202C0023F480331360784B1B68774A23F48023A6
:10203C0013601DE07B685B68B3F5A02F0CD1724B6D
:10204C001B68714A43F4802313606F4B1B686E4A04
:10205C0043F4803313600BE06B4B1B686A4A23F428
:10206C0080331360684B1B68674A23F4802313602A
:10207C007B685B68002B13D0FFF7B6FC386108E077
:10208C00FFF7B2FC02463B69D31A642B01D9032338
:10209C00FAE15D4B1B6803F40033002BF0D014E025
:1020AC00FFF7A2FC386108E0FFF79EFC02463B6993
:1020BC00D31A642B01D90323E6E1534B1B6803F4B9
:1020CC000033002BF0D100E000BF7B681B6803F0ED
:1020DC000203002B63D04C4B5B6803F00C03002B0A
:1020EC000BD0494B5B6803F00C03082B1CD1464BFF
:1020FC005B6803F48033002B16D1434B1B6803F051
:10210C000203002B05D07B681B69012B01D0012336
:10211C00BAE13D4B1B6823F0F8027B685B69DB007E
:10212C00394913430B603AE07B681B69002B20D0C4
:10213C00364B01221A60FFF757FC386108E0FFF7B5
:10214C0053FC02463B69D31A022B01D903239BE1B2
:10215C002D4B1B6803F00203002BF0D02A4B1B689D
:10216C0023F0F8027B685B69DB00274913430B60A3
:10217C0015E0264B00221A60FFF736FC386108E0A8
:10218C00FFF732FC02463B69D31A022B01D9032319
:10219C007AE11D4B1B6803F00203002BF0D17B6826
:1021AC001B6803F00803002B3AD07B689B69002B5B
:1021BC0019D0174B01221A60FFF716FC386108E0A2
:1021CC00FFF712FC02463B69D31A022B01D90323F9
:1021DC005AE10D4B5B6A03F00203002BF0D0012097
:1021EC0000F09AFA1CE00A4B00221A60FFF7FCFB85
:1021FC0038610FE0FFF7F8FB02463B69D31A022B5C
:10220C0008D9032340E100BF001002400000424205
:10221C00800442429E4B5B6A03F00203002BE9D11F
:10222C007B681B6803F00403002B00F0A6800023DE
:10223C00FB75974BDB6903F08053002B0DD1944B4E
:10224C00DB69934A43F08053D361914BDB6903F014
:10225C008053BB60BB680123FB758E4B1B6803F47A
:10226C008073002B18D18B4B1B688A4A43F4807304
:10227C001360FFF7B9FB386108E0FFF7B5FB0246C6
:10228C003B69D31A642B01D90323FDE0814B1B68F6
:10229C0003F48073002BF0D07B68DB68012B06D134
:1022AC007B4B1B6A7A4A43F0010313622DE07B6877
:1022BC00DB68002B0CD1764B1B6A754A23F00103AB
:1022CC001362734B1B6A724A23F0040313621CE003
:1022DC007B68DB68052B0CD16D4B1B6A6C4A43F099
:1022EC00040313626A4B1B6A694A43F001031362CD
:1022FC000BE0674B1B6A664A23F001031362644BC5
:10230C001B6A634A23F0040313627B68DB68002BAF
:10231C0015D0FFF769FB38610AE0FFF765FB024651
:10232C003B69D31A41F28832934201D90323ABE0C3
:10233C00574B1B6A03F00203002BEED014E0FFF79F
:10234C0053FB38610AE0FFF74FFB02463B69D31A97
:10235C0041F28832934201D9032395E04C4B1B6A1E
:10236C0003F00203002BEED1FB7D012B05D1484B72
:10237C00DB69474A23F08053D3617B68DB69002B10
:10238C0000F08180424B5B6803F00C03082B61D09A
:10239C007B68DB69022B46D13F4B00221A60FFF7AA
:1023AC0023FB386108E0FFF71FFB02463B69D31A99
:1023BC00022B01D9032367E0354B1B6803F0007334
:1023CC00002BF0D17B681B6AB3F5803F08D1304BF2
:1023DC005B6823F400327B689B682D4913434B6088
:1023EC002B4B5B6823F474127B68196A7B685B6AFD
:1023FC000B43274913434B60274B01221A60FFF70D
:10240C00F3FA386108E0FFF7EFFA02463B69D31A9A
:10241C00022B01D9032337E01D4B1B6803F000731B
:10242C00002BF0D02FE01C4B00221A60FFF7DCFAD7
:10243C00386108E0FFF7D8FA02463B69D31A022B41
:10244C0001D9032320E0124B1B6803F00073002B0F
:10245C00F0D118E07B68DB69012B01D1012313E07B
:10246C000B4B5B68FB60FB6803F480327B681B6A78
:10247C009A4206D1FB6803F470127B685B6A9A423D
:10248C0001D0012300E0002318461837BD4680BD5B
:10249C0000100240007000406000424280B584B0E1
:1024AC0000AF786039607B68002B01D10123D0E04C
:1024BC006A4B1B6803F007033A689A4210D9674BC2
:1024CC001B6823F0070265493B6813430B60634BA1
:1024DC001B6803F007033A689A4201D00123B8E065
:1024EC007B681B6803F00203002B20D07B681B6801
:1024FC0003F00403002B05D0594B5B68584A43F496
:10250C00E06353607B681B6803F00803002B05D065
:10251C00534B5B68524A43F460535360504B5B68B7
:10252C0023F0F0027B689B684D4913434B607B683A
:10253C001B6803F00103002B40D07B685B68012B08
:10254C0007D1474B1B6803F40033002B15D1012333
:10255C007FE07B685B68022B07D1414B1B6803F063
:10256C000073002B09D1012373E03D4B1B6803F072
:10257C000203002B01D101236BE0394B5B6823F084
:10258C0003027B685B68364913434B60FFF72CFAF8
:10259C00F8600AE0FFF728FA0246FB68D31A41F20A
:1025AC008832934201D9032353E02D4B5B6803F02F
:1025BC000C027B685B689B009A42EBD1274B1B6833
:1025CC0003F007033A689A4210D2244B1B6823F09D
:1025DC00070222493B6813430B60204B1B6803F036
:1025EC0007033A689A4201D0012332E07B681B68EA
:1025FC0003F00403002B08D0194B5B6823F4E06252
:10260C007B68DB68164913434B607B681B6803F0DF
:10261C000803002B09D0124B5B6823F460527B68D3
:10262C001B69DB000E4913434B6000F021F8024696
:10263C000B4B5B681B0903F00F030A49CB5C22FAB6
:10264C0003F3094A1360094B1B681846FFF78AF914
:10265C00002318461037BD4680BD00BF0020024045
:10266C00001002403C31000810000020280000201F
:10267C0080B487B000AF0023FB600023BB60002355
:10268C007B6100237B6000233B611E4B5B68FB601E
:10269C00FB6803F00C03042B02D0082B03D027E0BB
:1026AC00194B3B6127E0FB689B0C03F00F03174AA7
:1026BC00D35C7B60FB6803F48033002B10D0114B90
:1026CC005B685B0C03F00103114AD35CBB607B6855
:1026DC000D4A02FB03F2BB68B2FBF3F37B6104E02F
:1026EC007B680C4A02FB03F37B617B693B6102E074
:1026FC00054B3B6100BF3B6918461C37BD4680BC8F
:10270C00704700BF0010024000127A004C310008E4
:10271C005C31000800093D0080B485B000AF7860E2
:10272C000A4B1B680A4AA2FB03235B0A7A6802FB6A
:10273C0003F3FB6000BFFB685A1EFA60002BF9D153
:10274C0000BF00BF1437BD4680BC7047100000208E
:10275C00D34D621080B582B000AF78607B68002BDF
:10276C0001D1012341E07B6893F83D30DBB2002BB3
:10277C0006D17B68002283F83C207868FEF7D8FFEE
:10278C007B68022283F83D207B681A687B680433DF
:10279C001946104600F056FA7B68012283F8462051
:1027AC007B68012283F83E207B68012283F83F205E
:1027BC007B68012283F840207B68012283F841204A
:1027CC007B68012283F842207B68012283F8432036
:1027DC007B68012283F844207B68012283F8452022
:1027EC007B68012283F83D20002318460837BD463C
:1027FC0080BD000080B485B000AF78607B6893F832
:10280C003D30DBB2012B01D0012335E07B68022285
:10281C0083F83D207B681B68DA687B681B6842F094
:10282C000102DA607B681B68164A934209D07B6808
:10283C001B68B3F1804F04D07B681B68124A93422B
:10284C0011D17B681B689B6803F00703FB60FB6876
:10285C00062B10D07B681B681A687B681B6842F0DB
:10286C0001021A6007E07B681B681A687B681B68AA
:10287C0042F001021A60002318461437BD4680BC92
:10288C00704700BF002C01400004004080B584B0AC
:10289C0000AF78607B681B68DB68FB607B681B683B
:1028AC001B69BB60BB6803F00203002B20D0FB68E4
:1028BC0003F00203002B1BD07B681B686FF0020235
:1028CC001A617B6801221A777B681B689B6903F08D
:1028DC000303002B03D0786800F098F905E07868C2
:1028EC0000F08BF9786800F09AF97B6800221A776F
:1028FC00BB6803F00403002B20D0FB6803F0040337
:10290C00002B1BD07B681B686FF004021A617B687C
:10291C0002221A777B681B689B6903F44073002BB7
:10292C0003D0786800F072F905E0786800F065F97A
:10293C00786800F074F97B6800221A77BB6803F0A2
:10294C000803002B20D0FB6803F00803002B1BD0DE
:10295C007B681B686FF008021A617B6804221A7787
:10296C007B681B68DB6903F00303002B03D07868DA
:10297C0000F04CF905E0786800F03FF9786800F059
:10298C004EF97B6800221A77BB6803F01003002B0A
:10299C0020D0FB6803F01003002B1BD07B681B6856
:1029AC006FF010021A617B6808221A777B681B682B
:1029BC00DB6903F44073002B03D0786800F026F930
:1029CC0005E0786800F019F9786800F028F97B6860
:1029DC0000221A77BB6803F00103002B0CD0FB68B4
:1029EC0003F00103002B07D07B681B686FF001021A
:1029FC001A617868FEF702FDBB6803F08003002BB8
:102A0C000CD0FB6803F08003002B07D07B681B689D
:102A1C006FF080021A61786800F06FFABB6803F0FF
:102A2C004003002B0CD0FB6803F04003002B07D0B5
:102A3C007B681B686FF040021A61786800F0F8F848
:102A4C00BB6803F02003002B0CD0FB6803F02003C1
:102A5C00002B07D07B681B686FF020021A61786826
:102A6C0000F042FA00BF1037BD4680BD80B584B07F
:102A7C0000AF786039600023FB737B6893F83C30BF
:102A8C00012B01D10223B4E07B68012283F83C20A6
:102A9C007B68022283F83D207B681B689B68BB60C7
:102AAC00BB6823F07703BB60BB6823F47F43BB6038
:102ABC007B681B68BA689A603B681B68B3F5005F5B
:102ACC003ED0B3F5005F00F28780B3F5805F00F075
:102ADC008680B3F5805F7FD8702B1AD0702B7BD893
:102AEC00602B50D0602B77D8502B3CD0502B73D808
:102AFC00402B58D0402B6FD8302B64D0302B6BD858
:102B0C00202B60D0202B67D8002B5CD0102B5AD0F8
:102B1C0062E07B6818683B6899683B685A683B6858
:102B2C00DB6800F06AF97B681B689B68BB60BB685C
:102B3C0043F07703BB607B681B68BA689A604FE010
:102B4C007B6818683B6899683B685A683B68DB6827
:102B5C0000F053F97B681B689A687B681B6842F429
:102B6C0080429A603CE07B6818683B6859683B6817
:102B7C00DB681A4600F0CAF87B681B6850211846BF
:102B8C0000F021F92CE07B6818683B6859683B68B9
:102B9C00DB681A4600F0E8F87B681B686021184671
:102BAC0000F011F91CE07B6818683B6859683B68B9
:102BBC00DB681A4600F0AAF87B681B6840211846AF
:102BCC0000F001F90CE07B681A683B681B68194639
:102BDC00104600F0F8F803E00123FB7300E000BF9F
:102BEC007B68012283F83D207B68002283F83C201F
:102BFC00FB7B18461037BD4680BD80B483B000AF58
:102C0C00786000BF0C37BD4680BC704780B483B081
:102C1C0000AF786000BF0C37BD4680BC704780B4F5
:102C2C0083B000AF786000BF0C37BD4680BC7047E6
:102C3C0080B483B000AF786000BF0C37BD4680BC59
:102C4C007047000080B485B000AF786039607B6855
:102C5C001B68FB607B682B4A934207D07B68B3F1FF
:102C6C00804F03D07B68284A934208D1FB6823F03D
:102C7C007003FB603B685B68FA681343FB607B681E
:102C8C00204A934207D07B68B3F1804F03D07B6816
:102C9C001D4A934208D1FB6823F44073FB603B68E8
:102CAC00DB68FA681343FB60FB6823F080023B6827
:102CBC005B691343FB607B68FA681A603B689A682F
:102CCC007B68DA623B681A687B689A627B680D4A9B
:102CDC00934203D13B681A697B681A637B680122B3
:102CEC005A617B681B6903F00103002B05D07B68DC
:102CFC001B6923F001027B681A6100BF1437BD46C3
:102D0C0080BC7047002C01400004004080B487B0A8
:102D1C0000AFF860B9607A60FB681B6A7B61FB6886
:102D2C001B6A23F00102FB681A62FB689B693B611A
:102D3C003B6923F0F0033B617B681B013A69134349
:102D4C003B617B6923F00A037B617A69BB6813439F
:102D5C007B61FB683A699A61FB687A691A6200BF09
:102D6C001C37BD4680BC704780B487B000AFF8609C
:102D7C00B9607A60FB681B6A7B61FB681B6A23F095
:102D8C001002FB681A62FB689B693B613B6923F488
:102D9C0070433B617B681B033A6913433B617B695E
:102DAC0023F0A0037B61BB681B017A6913437B6131
:102DBC00FB683A699A61FB687A691A6200BF1C3732
:102DCC00BD4680BC704780B485B000AF7860396078
:102DDC007B689B68FB60FB6823F07003FB603A68C0
:102DEC00FB68134343F00703FB607B68FA689A6047
:102DFC0000BF1437BD4680BC704780B487B000AFAD
:102E0C00F860B9607A603B60FB689B687B617B69AA
:102E1C0023F47F437B613B681A027B681A43BB68CF
:102E2C0013437A6913437B61FB687A699A6000BF2C
:102E3C001C37BD4680BC704780B485B000AF78604D
:102E4C0039607B6893F83C30012B01D1022341E0BF
:102E5C007B68012283F83C207B68022283F83D20AA
:102E6C007B681B685B68FB607B681B689B68BB604E
:102E7C00FB6823F07003FB603B681B68FA68134324
:102E8C00FB607B681B68FA685A607B681B68144A95
:102E9C00934209D07B681B68B3F1804F04D07B68E8
:102EAC001B68104A93420CD1BB6823F08003BB60B3
:102EBC003B685B68BA681343BB607B681B68BA6885
:102ECC009A607B68012283F83D207B68002283F89E
:102EDC003C20002318461437BD4680BC704700BF09
:102EEC00002C01400004004080B483B000AF786037
:102EFC0000BF0C37BD4680BC704780B483B000AFB8
:102F0C00786000BF0C37BD4680BC7047014B186819
:102F1C00704700BF3000002070B500260C4D0D4CE2
:102F2C00641BA410A64209D100F0F6F800260A4D45
:102F3C000A4C641BA410A64205D170BD55F8043B85
:102F4C0098470136EEE755F8043B98470136F2E70F
:102F5C0060310008603100086031000864310008FD
:102F6C00024B0146186800F05FB800BF300000202B
:102F7C00024B0146186800F00BB800BF300000206F
:102F8C0003460244934200D1704703F8011BF9E752
:102F9C0038B50546002943D051F8043C0C1F002BD2
:102FAC00B8BFE41800F0AAF81E4A1368104633B9EB
:102FBC00636014602846BDE8384000F0A5B8A34211
:102FCC000AD921686218934201BF1A685B685218CB
:102FDC00226063600460EDE71A465B680BB1A342A4
:102FEC00FAD911685018A0420BD12068014450182E
:102FFC0083421160DED118685B6801441160536034
:10300C00D8E702D90C232B60D4E7206821188B4217
:10301C0001BF19685B680918216063605460C9E7D7
:10302C0038BD00BFD8000020F8B5CD1C25F0030535
:10303C0008350C2D38BF0C25002D064601DBA942A6
:10304C0003D90C2333600020F8BD00F057F8214958
:10305C000A6814469CB9204F3B6823B92146304678
:10306C0000F03CF838602946304600F037F8431C35
:10307C0023D10C233046336000F046F8E3E7236895
:10308C005B1B17D40B2B03D923601C44256004E075
:10309C006368A2420CBF0B605360304600F034F8FA
:1030AC0004F10B00231D20F00700C21ACCD01B1A10
:1030BC00A350C9E722466468CCE7C41C24F003047F
:1030CC00A042E3D0211A304600F008F80130DDD1DF
:1030DC00CFE700BFD8000020DC00002038B500236B
:1030EC00054D044608462B60FEF778FB431C02D1C5
:1030FC002B6803B1236038BD80010020014800F02B
:10310C0009B800BF88010020014800F004B800BFD6
:10311C008801002070477047F8B500BFF8BC08BCA8
:10312C009E467047F8B500BFF8BC08BC9E46704779
:10313C00000000000000000001020304060708095B
:10314C0002030405060708090A0B0C0D0E0F1010DC
:04315C00010200006C
:043160003101000831
:043164000D01000851
:10316800050000000300000002000000010000004C
:1031780000127A0032000000E8030000FA000000A4
:10318800FA000000FFFFFF7F1000000001000000B0
:1031980034000020000000000000000000000000D3
:1031A8000000000000000000000000000000000017
:1031B8000000000000000000000000000000000007
:1031C80000000000000000000000000000000000F7
:1031D80000000000000000000000000000000000E7
:1031E80000000000000000000000000000000000D7
:0431F80000000000D3
:04000005080018F9DE
:00000001FF
